:030000000210BF2C
:0C10BF00787FE4F6D8FD7581EF020D2269
:0910D7007F1B7E40DEFEDFFC22DF
:041074007F647E0017
:10107800AD07AC06ED1DAE0470011CD39400EE6400
:0B10880080948040051210D780EA22FF
:0C10CB000078EF760478EF16E670FA2249
:100D22001210E9120FE91210521210F07D087F0D15
:100D32001200267B007A00794B7DA07C00120C3ECB
:100D42008E108F11D3E5119400E5106480948050C9
:100D52000512107480DD7B007A00794BAD11AC1066
:100D62001208D68F12E512700EFB7A00794BAD1184
:100D7200AC1012099B80BCE512B401B77B007A006B
:0B0D8200794BAD11AC1012004680A8A8
:100FBD009000071204A024F024FD501124F36010BA
:100FCD0024F0600F24D0600E14600B800C7F012282
:0C0FDD007F02227F04227F08227F002276
:10099B008B138A148915120FBD8F19AB13AA14A9C7
:1009AB0015120F1FE5195406605EAF151207FA8F6B
:1009BB0016E5166053AB13AA14A915120487B405D8
:1009CB000C1210A91210D71210931210D7C2AFAB82
:1009DB0013AA14A915E516FD7C00120E77D2AFAB46
:1009EB0013AA14A915120CB28F16AB13AA14A915BE
:1009FB0005168F82758300E41204DFE516FD7C007B
:100A0B00120D8DE51920E2A2E4F518F5177F0A7E89
:100A1B0000121078AB13AA14A9157DA07C00120B41
:100A2B00168F16E516D394004013AB13AA14A91511
:100A3B00EFFD7C00120F8AE5162517F5170518E553
:0F0A4B001760CAE518C3940A40C3E51670BF22AE
:100046008B138A148915E92403F9E43A8B16F517FC
:100056008918C3ED9405EC648094805003020390E4
:10006600AB16AA17A91812048724CE70030201A79B
:1000760024F270030202B5240F600302039090007D
:10008600011204A0248F602D14605614700302011F
:100096001F240360030203907B017A0579B68B1D4A
:1000A6008A1E891FE4F5F01205429005B87401F026
:1000B600F526020368AB16AA17A9189000021204C7
:1000C600A0FF1200039005B8EFF07B017A0579B620
:1000D6008B1D8A1E891FE4F5F01205428B2602034A
:1000E60068AB16AA17A9189000021204A0FF900088
:1000F600031204A0FD1200267B017A0579B68B1D3A
:100106008A1E891FE4F5F01205428B268A27892864
:10011600752900752A02020372AB13AA14A9159059
:1001260000011204A0FE9000021204A07C0024002C
:10013600FFEC3ECF24FEF51AEF34FFF519AB16E5BA
:10014600182402F9E43517FAAD1AAC191210F7752E
:1001560040017541057542B87B007A007919120A8B
:100166005A8F20751D01751E05751FB6E51A4519AE
:1001760070082FFFE43431FE80047E007F00AB1D43
:10018600AA1EA91FEE8FF0120542752601752705D6
:100196007528B6E51A2402F52AE43519F52902036D
:1001A60072AB16AA17A9189000011204A024BF600A
:1001B600030203909000021204A0FE9000031204B2
:1001C600A07C002400F51CEC3EF51BE51CF4700336
:1001D600E51BF46008E51C151C7002151B7B017AF3
:1001E6000579B91206CD8F20E520700575200180AE
:1001F60008E520B40203E4F520E52070177B017AB8
:100206000579B91205618F20E520700575200280F9
:1002160003E4F520D3E51C9464E51B9400400E74BA
:100226009C251CF51C74FF351BF51B8005E4F51B8E
:10023600F51CE520700BD3E51C9400E51B940050DB
:100246009C751D01751E05751FB6E52060067E00AE
:100256007F0080047E107F06AB1DAA1EA91FEE8FAD
:10026600F0120542E5207003FF800BE520B401047F
:100276007F0A80027F0B9005B8EFF075260175277F
:10028600057528B6752900752A07AB13AA14A91592
:100296007DA07C00120BAA8E198F1AAB13AA14A983
:1002A60015AD1AAC19120F8AE4FD7F01020026ABC8
:1002B60016AA17A9189000011204A024EF700302D1
:1002C600034E046003020390AB16AA17A918900008
:1002D600021204A09005F6F09000031204A0900507
:1002E600F7F07B017A0579B68B1D8A1E891FE4F526
:1002F600F01205428B268A278928752900752A025D
:10030600AB13AA14A9157DA07C00120BAA8E198F17
:100316001AAB13AA14A915AD1AAC19120F8A9005B7
:10032600F7E0FF14F0EF60097FE87E031210788093
:10033600ED9005F6E0B4010575C760800375C7202A
:1003460012107412107480F87B017A0579B68B1D31
:100356008A1E891FE4F5F01205429005B87410F064
:100366008B268A278928752900752A03AB13AA14B8
:10037600A9157DA07C00120BAA8E198F1AAB13AAA1
:0B03860014A915AD1AAC19120F8A2241
:0910E000000000000000000022E5
:0710E900C2A7D2A4D2A52288
:1007FA008F1AE478ECF678EEF618F6C2AF20A61C4B
:10080A001210CB78ED06E6C394FF40050806E418FB
:10081A00F678EEE6C3941440E40208CB20A4FD2047
:10082A00A6030208CBE478EBF630A4FD30A50678DF
:10083A00EBE64480F630A40620A6FA0208CB30A4E0
:10084A00FD30A50678EBE64440F620A4FD30A4FD71
:10085A0030A50678EBE64420F620A4FD30A4FD304E
:10086A00A50678EBE64410F620A4FD30A4FD30A5D9
:10087A000678EBE64408F620A4FD30A4FD30A50670
:10088A0078EBE64404F620A4FD30A4FD30A50678F2
:10089A00EBE64402F620A4FD30A4FD30A50678EB71
:1008AA00E64401F620A4FDC2A530A4FD78EBE6AE2D
:1008BA001A051AA806F620A4FDD2A578EC060208A5
:0C08CA0029D2A5D2A4D2AF78ECE6FF2220
:100D8D008C1A8D1BC2AFD2A71210E0C2A51210E0B3
:100D9D00C2A4E51B151BAE1A7002151A4E6039124E
:100DAD000487FF7E80E4FDEF5E6004D2A58002C261
:100DBD00A5EEC313FED2A41210E0C2A41210E00DD2
:100DCD00BD08E4D2A51210E0D2A41210E0C2A474A2
:100DDD000129F9E43AFA80BAD2A4D2A5C2A7D2AFBA
:010DED0022E3
:0710F000C295D292C2A022BA
:10100D00E4FEC29500000000EF30E704D2938002A9
:10101D00C293EF25E0FFD295000000000EBE08E25E
:03102D00C2952247
:10103000C295E4FF7E80FDD295000000003094034D
:10104000EE4207C295EEC313FE000000000DBD087E
:02105000E62296
:060EB1007B007D017C00C6
:100EB7008B478A488949E94A4B6025ED4C6021ED0B
:100EC7001DAE0470011C4E6017AB470549E549AAE2
:100ED700487002054814F9120487FF12100D80DFCD
:010EE70022E8
:100E3D008B468A4789488C498D4AE94A4B602AE599
:100E4D004A45496024E54A154AAE49700215494E96
:100E5D006017121030AB460548E548AA47700205E9
:0A0E6D004714F9EF1204CD80DC22D7
:10000300C292EF547FF5457A007945120EB17B0019
:100013007A0079457D017C00120E3DD292AF4522D4
:10002600EF4480F5458D46C2927B007A0079457D86
:09003600027C00120EB7D29222E6
:100CB2008B1A8A1B891CE4F51EF51F8005E51D2091
:100CC200E7097F051200038F1D80F2E51D30E04623
:100CD2007F08120003EF7F00FEC006C0077F0912E3
:100CE2000003EFFDD0E02DF51FD0E03400F51E45E6
:100CF2001F70028026E4F51DC292FB7A00791D7DE9
:100D020001FC120EB7AB1AAA1BA91CAD1FAC1E1216
:100D12000E3DD2928005E4F51EF51FAE1EAF1F22D6
:100E77008B3D8A3E893F8C408D417D057F06120060
:100E8700267D017F06120026754280C2927A00797C
:100E970042120EB1AB3DAA3EA93FAD41AC40120E86
:0A0EA700B7D2927D037F06020026F9
:100A5A008B3D8A3E893FE4F5F01205427F0512007C
:100A6A00038F43E54330E7F4E54330E60575434039
:100A7A008035E54330E505754320802BE54330E4B6
:100A8A00057543108021E54330E305754308801757
:100A9A00E54330E205754304800DE54330E1057511
:100AAA00430280037543017F08120003EF7F00FEB3
:100ABA00C006C0077F09120003EFFDD0E02DFFD06A
:100ACA00E03400AB3DAA3EA93F8FF0120542AB3D90
:100ADA00AA3EA93F12051745F06027C292E4F544E1
:100AEA00FB7A0079447D01FC120EB7AB3DAA3EA900
:100AFA003F120517FDACF0AB40AA41A942120E3DC8
:0C0B0A00D292E4FD7F05120026AF4322CA
:0310F700020E776F
:101093007D017F06120026E4FFFE0FBF00010EBE96
:0610A30027F8BF10F52242
:1010A900E4FD7F06120026E4FFFE0FBF00010EBE1D
:0610B90027F8BF10F5222C
:100FE900759850438E40538EFE53890FC2ABD28EF3
:100FF900758BC5758DFFD2ACD2AFE49005B3F09077
:0410090005B0F0221C
:03002300020F5574
:100F5500C0E0C083C082C0D0309821C2989005B04F
:100F6500E02400F582E43400F583E599F09005B0BE
:100F7500E004F0C3748094814002E4F0D0D0D082C4
:050F8500D083D0E03232
:100F8A008B218A2289238C248D25E4FFEFC39525A2
:100F9A00E5246480F87480985018AB21AA22A9230A
:100FAA008F827583001204A0F5993099FDC2990FBA
:030FBA0080DA22B8
:100C3E008B138A1489158C168D17E4F518F51990F7
:100C4E0005B3E0FF9005B0E06F60549005B3E0246B
:100C5E0000F582E43400F583E0FFAB13AA14A91566
:100C6E000519E519AC187002051814F5828C83EF7E
:100C7E001204DF9005B3E004F0C374809481400247
:100C8E00E4F0C3E5199517E5166480F8E51864805D
:100C9E0098500C9005B3E0FF9005B0E0B507ACAEF0
:040CAE0018AF192240
:1010520053BAFE759A50438E1475D7C575D6FF43A1
:10106200AF01D2AFE49005B4F0A3F09005B1F0A3C4
:02107200F0226A
:03004300020DEEBD
:100DEE00C0E0C0F0C083C082C0D075D008E59A3094
:100DFE00E032539AFE9005B1E0FEA3E02400F582A6
:100E0E0074013EF583E59BF09005B1E475F0011297
:100E1E000501FEC3E5F094B0EE940440079005B1D1
:0F0E2E00E4F0A3F0D0D0D082D083D0F0D0E03267
:100F1F008B1A8A1B891C8C1D8D1EE4FFEFC3951E37
:100F2F00E51D6480F8748098501BAB1AAA1BA91C8E
:100F3F008F827583001204A0F59BE59A30E1FB5375
:060F4F009AFD0F80D7227D
:100B16008B1A8A1B891C8C1D8D1EE4F51FF52090EF
:100B260005B4E0FEA3E0FF9005B1E06E7003A3E01C
:100B36006F606C9005B4E0FEA3E02400F5827401BA
:100B46003EF583E0FFAB1AAA1BA91C0520E520ACE5
:100B56001F7002051F14F5828C83EF1204DF9005C7
:100B6600B4E475F001120501FEC3E5F094B0EE940D
:100B7600044007E49005B4F0A3F0C3E520951EE514
:100B86001D6480F8E51F64809850149005B4E0FE5B
:100B9600A3E0FF9005B1E0B50699A3E0B50794AED2
:040BA6001FAF20223B
:100EE8008B2B8A2C892D8C2E8D2FE4F530FFFEC399
:100EF800EF952FE52E6480F8EE6480985016AB2BA2
:100F0800AA2CA92D8F828E831204A062300FBF00F5
:070F1800010E80DBAF302267
:1008D6008B138A148915C3ED9403EC94005003021C
:1008E6000992AB13AA14A9151204876402706B90BF
:1008F60000011204A09000021204A02400F516EDD7
:1009060024FBFFEC34FFFEAD167C00EF6D7001EEAC
:100916006002807874042DF582E43CF583AB13AA5B
:1009260014A9151204A0640360028060E92403F987
:10093600E43AFAE516FD7C00120EE8E516F5828C1F
:1009460083A3A3A3AB13AA14A9151204A06F600571
:100956007EFF7FFF227E007F0122AB13AA14A9151A
:1009660012048764AA70259000011204A0B4AA1C80
:100976009000021204A0B4AA139000031204A0B4BB
:10098600960A9000041204A0646960057EFF7FFE4B
:0509960022E4FEFF2237
:100BAA008B218A228923E52A2405FFE43529FEC3FD
:100BBA00ED9FEC9E50057EFF7FFD22AB21AA22A964
:100BCA002374021204CDE529AB21AA22A92390009D
:100BDA00011204DFE52A9000021204DFAE29AF2ACF
:100BEA00E5232403F9E43522A801FCAD21AB26AAAA
:100BFA0027A928120461AB26AA27A928AD2AAC295D
:100C0A00120EE8AB21AA22A923E52A2403FDE43522
:100C1A00298D82F583EF1204DFE52A2404FFE435E7
:100C2A00298F82F58374031204DFE52A2405FFE481
:040C3A003529FE2238
:0310FA00020026CB
:04003F001200032286
:100561008B218A228923E4FD7F011210FAE4FD7FA9
:10057100061210FA7F057E001210787D017F0612A7
:1005810010FA7F057E001210789005FB7405F0E4E7
:10059100A3F0A3F07B017A0579FB7D03FC1210F730
:1005A1007540017541057542FB7B017A0579F812A9
:1005B1000A5A9005FAEFF09005F8E07002A3E060A6
:1005C100089005FBE0645060037F01229005FB74F5
:1005D1001DF0E4900600F0A37408F0A37401F0A3E9
:1005E100F0FB7A0579FB7D097C001210F77540015B
:1005F1007541057542FB7B017A0579F8120A5A901B
:1006010005FAEFF09005F8E07002A3E070037F02B5
:10061100229005FBE0640160037F0222E49005FB68
:10062100F0A37436F0E4A3F0A3F0A37408F07B0107
:100631007A0579FB7D057C001210F7754001754143
:10064100057542FB7B017A0579F8120A5A9005FA81
:10065100EFF09005F8E07002A3E070037F022290B2
:100661000603E0B49004A3E060037F03229005FB3E
:10067100E0FFAB210523E523AA227002052214F92C
:10068100EF1204CD9005FCE0FFAB210523E523AA81
:10069100227002052214F9EF1204CD9005FDE0FF4E
:1006A100AB210523E523AA227002052214F9EF12DA
:1006B10004CD9005FEE0FFAB210523E523AA2270BE
:0C06C10002052214F9EF1204CD7F002284
:1006CD008B218A228923753C267528937529207DD7
:1006DD00107F011210FAE4FD7F061210FA7F057EDD
:1006ED00001210787D017F061210FA7F057E001230
:1006FD0010787B007A00793C7D017C001210F77533
:10070D0040007541007542327B007A007924120A4F
:10071D005A8F277B007A0079287D027C001210F712
:10072D007540007541007542327B007A00792412C4
:10073D000A5A8F27E52720E6030207CC7F0E120009
:10074D003FEF04FFE52504FEC454F02F752893F503
:10075D0029E4FFEFC39525E49524500F74322FF84B
:10076D00E6FE742A2FF8A6060F80E87B007A007942
:10077D0028E5252402FDE43524FC1210F775400010
:10078D007541007542327B007A007924120A5A8F26
:10079D0027E52730E026E4F52674322526F8E6FF16
:1007AD00AB210523E523AA227002052214F9EF12CD
:1007BD0004CD0526E526B405E07F01227F0222E562
:1007CD002730E026E4F52674322526F8E6FFAB2126
:1007DD000523E523AA227002052214F9EF1204CD98
:0D07ED000526E526B405E07F00227F0222EC
:10039100E709F608DFFA8046E709F208DFFA803E4E
:1003A10088828C83E709F0A3DFFA8032E309F6083B
:1003B100DFFA8078E309F208DFFA807088828C83A3
:1003C100E309F0A3DFFA806489828A83E0A3F60857
:1003D100DFFA805889828A83E0A3F208DFFA804C31
:1003E10080D280FA80C680D4806980F28033801008
:1003F10080A680EA809A80A880DA80E280CA803371
:1004010089828A83ECFAE493A3C8C582C8CCC583E8
:10041100CCF0A3C8C582C8CCC583CCDFE9DEE780B8
:100421000D89828A83E493A3F608DFF9ECFAA9F037
:10043100EDFB2289828A83ECFAE0A3C8C582C8CC8D
:10044100C583CCF0A3C8C582C8CCC583CCDFEADEA6
:10045100E880DB89828A83E493A3F208DFF980CC08
:1004610088F0EF60010E4E60C388F0ED2402B40401
:100471000050B9F582EB2402B4040050AF232345A8
:0604810082239003E173E9
:10048700BB010689828A83E0225002E722BBFE0273
:09049700E32289828A83E49322A6
:1004A000BB010CE58229F582E5833AF583E0225011
:1004B00006E92582F8E622BBFE06E92582F8E2225B
:0D04C000E58229F582E5833AF583E4932275
:1004CD00BB010689828A83F0225002F722BBFE010E
:0204DD00F32208
:1004DF00F8BB010DE58229F582E5833AF583E8F053
:1004EF00225006E92582C8F622BBFE05E92582C8FF
:0204FF00F222E7
:10050100C5F0F8A3E028F0C5F0F8E5821582700285
:060511001583E038F02222
:10051700BB010A89828A83E0F5F0A3E022500687AF
:10052700F009E71922BBFE07E3F5F009E319228971
:0B053700828A83E493F5F074019322A4
:10054200BB010A89828A83F0E5F0A3F0225006F704
:0F05520009A7F01922BBFE06F3E5F009F3192201
:00000001FF
