:03000000020D925C
:0C0D9200787FE4F6D8FD7581C20208925B
:080D9E007F1B7E40DEFEDFFC3E
:010DA600222A
:040D29007F647E0065
:100D2D00AD07AC06ED1DAE0470011CD39400EE644E
:0B0D3D008094804005120D9E80EA2289
:10089200E4F50B050BE50BD394035012E4FF120CA5
:1008A20091120D297FFF120C91120D2980E5120D74
:1008B200B0120CC0120D48120DB77D087F0D120048
:1008C200267B007A0079437D807C001209208E0805
:1008D2008F09D3E5099400E50864809480500A7F6B
:1008E20001120C91120D2980D87B007A007943AD58
:1008F20009AC081205CE8F0AE50A700EFB7A007960
:1009020043AD09AC0812074F80B7E50AB401B27BC8
:0E091200007A007943AD09AC0812004680A3BC
:06074F008B0C8A0D890EDF
:10075500120BF3AF0E1204FC8F0FE50F605CAB0CB0
:10076500AA0DA90E120320B4051A120D7CE4F51189
:100775000511E511B4FFF9120D66E4F5110511E552
:1007850011B4FFF9C2AFAB0CAA0DA90EE50FFD7CA4
:1007950000120B13D2AFAB0CAA0DA90E120A088FCB
:1007A5000FAB0CAA0DA90E8F82758300E412037896
:1007B500050FE50FFD7C00120A78E4F511F510121E
:1007C5000D29AB0CAA0DA90E7D807C001209948F12
:1007D5000FE50FD394004013AB0CAA0DA90EEFFD46
:1007E5007C00120C5EE50F2510F5100511E5107063
:0807F50007E511C3940A40C797
:0107FD0022D9
:060046008B0C8A0D890EEF
:10004C00E92403F9E43A8B0FF5108911C3ED9405FB
:10005C00EC6480948050030202297F08120C91AB4F
:10006C000FAA10A91112032024CE600A24F27003E7
:10007C0002014702022990000112033924BF6003D8
:10008C00020229900002120339FE90000312033978
:10009C007C002400F515EC3EF514E515F47003E531
:1000AC0014F46008E515151570021514120D7C7FFB
:1000BC00057E00120D2D120D667F057E00120D2D92
:1000CC007B017A0279071203E4D3E5159464E514F5
:1000DC009400400E749C2515F51574FF3514F51419
:1000EC008005E4F514F515EF600F6401600BD3E5A2
:1000FC00159400E514940050C77516017517027518
:10010C001804EF70067C107D0680047C007D00AB2B
:10011C0016AA17A918EC8DF01203C5BF02047F00B4
:10012C0080027F0A900206EFF0751E01751F0275A2
:10013C00200475210075220702020BAB0FAA10A92F
:10014C001190000112033924EF70030201E70460DF
:04015C00030202296F
:10016000AB0FAA10A911900002120339900244F0BB
:10017000900003120339900245F07B017A02790462
:100180008B168A178918E4F5F01203C58B1E8A1F97
:100190008920752100752202AB0CAA0DA90E7D8065
:1001A0007C001207FE8E128F13AB0CAA0DA90EADA8
:1001B00013AC12120C5E900245E0FF14F0EF6009E0
:1001C0007FE87E03120D2D80ED900244E0B401051E
:1001D00075C760800375C720E4FF120C91120D29CA
:0701E0007FFF120C9180F17A
:1001E7007B017A0279048B168A178918E4F5F012D5
:1001F70003C59002067410F08B1E8A1F8920752193
:1002070000752203AB0CAA0DA90E7D807C00120796
:10021700FE8E128F13AB0CAA0DA90EAD13AC1212E2
:020227000C5E6B
:0102290022B2
:100C9100EF30E003C38001D39283EF30E103C380DF
:100CA10001D39280EF30E203C38001D392A3EF30EE
:0F0CB100E303C38001D392B77F647E00020D2D51
:090DA70000000000000000002221
:070DB000C2A7D2A4D2A522C4
:0204FC008F125D
:1004FE00E4F514F51320A60D120D9E0513E513B4A5
:10050E0064F37F0022C2AF20A4FD20A6030205C51E
:10051E00E4F51330A4FD30A50343138030A4062068
:10052E00A6FA0205C530A4FD30A50343134030A43E
:10053E000620A6FA0205C530A4FD30A503431320FC
:10054E0030A40520A6FA806F30A4FD30A503431316
:10055E001030A40520A6FA805E30A4FD30A503431A
:10056E00130830A40520A6FA804D30A4FD30A50353
:10057E0043130430A40520A6FA803C30A4FD30A518
:10058E000343130230A40520A6FA802B30A4FD30BD
:10059E00A50343130130A40520A6FA801AC2A53084
:1005AE00A4FDA812A61330A40520A6FA8009D2A590
:0F05BE0005120514020518D2A5D2A4D2AFAF14AE
:0105CD00220B
:040A78008C128D133C
:100A7C00C2AFD2A7120DA7C2A5120DA7C2A4E5132F
:100A8C001513AE12700215124E6039120320FF7E40
:100A9C0080E4FDEF5E6004D2A58002C2A5EEC31314
:100AAC00FED2A4120DA7C2A4120DA70DBD08E4D24C
:100ABC00A5120DA7D2A4120DA7C2A4740129F9E4A2
:0C0ACC003AFA80BAD2A4D2A5C2A7D2AFD9
:010AD80022FB
:070DB700C295D292C2A022F6
:100CE400E4FEC29500000000EF30E704D2938002D6
:100CF400C293EF25E0FFD295000000000EBE08E28B
:020D0400C29596
:010D060022CA
:100D0700C295E4FF7E80FDD2950000000030940379
:100D1700EE4207C295EEC313FE000000000DBD08AA
:010D2700E6E5
:010D280022A8
:060B85007B007D017C00F5
:100B8B008B3F8A408941E94A4B6025ED4C6021ED52
:100B9B001DAE0470011C4E6017AB3F0541E541AA29
:100BAB00407002054014F9120320FF120CE480DFA1
:010BBB002217
:100AD9008B3E8A3F89408C418D42E94A4B602AE529
:100AE9004245416024E5421542AE41700215414E2E
:100AF9006017120D07AB3E0540E540AA3F7002059D
:0A0B09003F14F9EF12036680DC22AE
:10000300C292EF547FF53D7A00793D120B857B0058
:0F0013007A00793D7D017C00120AD9D292AF3D6F
:0100220022BB
:10002600EF4480F53D8D3EC2927B007A00793D7D9E
:08003600027C00120B8BD29238
:01003E00229F
:060A08008B128A13891411
:100A0E00E4F516F5178005E51520E7097F051200B8
:100A1E00038F1580F2E51530E0467F08120003EFD4
:100A2E007F00FEC006C0077F09120003EFFDD0E075
:100A3E002DF517D0E03400F516451770028026E428
:100A4E00F515C292FB7A0079157D01FC120B8BAB6A
:100A5E0012AA13A914AD17AC16120AD9D292800598
:090A6E00E4F516F517AE16AF17FA
:010A7700225C
:0A0B13008B358A3689378C388D390E
:100B1D007D057F061200267D017F06120026753A9F
:100B2D0080C2927A00793A120B85AB35AA36A93775
:100B3D00AD39AC38120B8BD2927D037F06020026A5
:060693008B358A36893721
:10069900E4F5F01203C57F051200038F3BE53B30FB
:1006A900E7F4E53B30E605753B408035E53B30E551
:1006B90005753B20802BE53B30E405753B10802117
:1006C900E53B30E305753B088017E53B30E20575EE
:1006D9003B04800DE53B30E105753B028003753B2A
:1006E900017F08120003EF7F00FEC006C0077F09E3
:1006F900120003EFFDD0E02DFFD0E03400AB35AAA6
:1007090036A9378FF01203C5AB35AA36A9371203BC
:100719009A45F06027C292E4F53CFB7A00793C7D6A
:1007290001FC120B8BAB35AA36A93712039AFDAC23
:10073900F0AB38AA39A93A120AD9D292E4FD7F0559
:05074900120026AF3B89
:01074E002288
:030DBE00020B1312
:100D66007D017F06120026E4FFFE0FBF00010EBEC6
:050D760027F8BF10F595
:010D7B002255
:100D7C00E4FD7F06120026E4FFFE0FBF00010EBE4D
:050D8C0027F8BF10F57F
:010D9100223F
:100CC000759850438E40538EFE53890FC2ABD28E1F
:100CD000758BC5758DFFD2ACD2AFE4900202F09057
:040CE0000200F022FC
:03002300020C29A3
:100C2900C0E0C083C082C0D0309821C29890020031
:100C3900E02400F582E43400F583E599F0900200A0
:100C4900E004F0C3748094814002E4F0D0D0D082F3
:050C5900D083D0E03261
:0A0C5E008B198A1A891B8C1C8D1D4E
:100C6800E4FFEFC3951DE51C6480F8748098501864
:100C7800AB19AA1AA91B8F82758300120339F5993B
:080C88003099FDC2990F80DADA
:010C90002241
:0A0920008B0C8A0D890E8C0F8D10D0
:10092A00E4F511F512900202E0FF900200E06F6018
:10093A0054900202E02400F582E43400F583E0FFDB
:10094A00AB0CAA0DA90E0512E512AC117002051125
:10095A0014F5828C83EF120378900202E004F0C34C
:10096A00748094814002E4F0C3E5129510E50F64A7
:10097A0080F8E511648098500C900202E0FF900222
:09098A0000E0B507ACAE11AF129C
:010993002241
:100D480053BAFE759A50438E1475D7C575D6FF43AE
:0E0D5800AF01D2AFE4900203F0900201F0224E
:03004300020B4D60
:100B4D00C0E0C083C082C0D0E59A30E022539AFE47
:100B5D00900201E02400F582E43401F583E59BF079
:100B6D00900201E004F0C3748094814002E4F0D05F
:080B7D00D0D082D083D0E03219
:0A0BF3008B128A1389148C158D16DD
:100BFD00E4FFEFC39516E5156480F8748098501BDB
:100C0D00AB12AA13A9148F82758300120339F59BB9
:0B0C1D00E59A30E1FB539AFD0F80D7F1
:010C280022A9
:0A0994008B128A1389148C158D163E
:10099E00E4F517F518900203E0FF900201E06F6096
:1009AE0054900203E02400F582E43401F583E0FF65
:1009BE00AB12AA13A9140518E518AC177002051787
:1009CE0014F5828C83EF120378900203E004F0C3D7
:1009DE00748094814002E4F0C3E5189516E5156421
:1009EE0080F8E517648098500C900203E0FF9002A7
:0909FE0001E0B507ACAE17AF181B
:010A070022CC
:0A0BBC008B238A2489258C268D27BF
:100BC600E4F528FFFEC3EF9527E5266480F8EE647A
:100BD60080985016AB23AA24A9258F828E831203F0
:0C0BE6003962280FBF00010E80DBAF2831
:010BF20022E0
:1005CE008B0C8A0D890EC3ED9403EC94005003023C
:0F05DE00068AAB0CAA0DA90E1203206402706BE3
:1005ED009000011203399000021203392400F50F17
:1005FD00ED24FBFFEC34FFFEAD0F7C00EF6D7001C1
:10060D00EE6002807874042DF582E43CF583AB0C2A
:10061D00AA0DA90E120339640360028060E9240358
:10062D00F9E43AFAE50FFD7C00120BBCE50FF582FB
:10063D008C83A3A3A3AB0CAA0DA90E1203396F6073
:0B064D00057EFF7FFF227E007F012260
:10065800AB0CAA0DA90E12032064AA702590000104
:10066800120339B4AA1C900002120339B4AA1390D9
:100678000003120339B4960A90000412033964691E
:0B06880060057EFF7FFE22E4FEFF22E3
:1007FE008B198A1A891BE5222405FFE43521FEC3D5
:10080E00ED9FEC9E50057EFF7FFD22AB19AA1AA923
:10081E001B7402120366E521AB19AA1AA91B9000DC
:10082E0001120378E522900002120378AE21AF2266
:10083E00E51B2403F9E4351AA801FCAD19AB1EAA79
:10084E001FA9201202FAAB1EAA1FA920AD22AC21AD
:10085E00120BBCAB19AA1AA91BE5222403FDE43521
:10086E00218D82F583EF120378E5222404FFE4350F
:10087E00218F82F5837403120378E5222405FFE4A9
:04088E003521FE22F0
:030DC10002002607
:04003F001200032286
:0603E4008B198A1A891B27
:1003EA007534267520937521207D107F01120DC169
:1003FA007D017F06120DC17B007A0079347D017C74
:10040A0000120DBE753800753900753A2A7B007ADC
:10041A0000791C1206938F1F7B007A0079207D02D7
:10042A007C00120DBE753800753900753A2A7B00BA
:10043A007A00791C1206938F1FE51F20E603020437
:10044A00CE7F0E12003FEF04FFE51D04FEC454F0F8
:10045A002F752093F521E4FFEFC3951DE4951C50F9
:10046A000F742A2FF8E6FE74222FF8A6060F80E8EA
:10047A007B007A007920E51D2402FDE4351CFC127C
:10048A000DBE753800753900753A2A7B007A0079F5
:10049A001C1206938F1FE51F30E026E4F51E742A0E
:1004AA00251EF8E6FFAB19051BE51BAA1A70020503
:1004BA001A14F9EF120366051EE51EB405E07F0162
:1004CA00227F0222E51F30E026E4F51E742A251E4B
:1004DA00F8E6FFAB19051BE51BAA1A7002051A14E8
:1004EA00F9EF120366051EE51EB405E07F00227FC0
:0104FA0002FF
:0104FB0022DE
:10022A00E709F608DFFA8046E709F208DFFA803EB6
:10023A0088828C83E709F0A3DFFA8032E309F608A3
:10024A00DFFA8078E309F208DFFA807088828C830B
:10025A00E309F0A3DFFA806489828A83E0A3F608BF
:10026A00DFFA805889828A83E0A3F208DFFA804C99
:10027A0080D280FA80C680D4806980F28033801070
:10028A0080A680EA809A80A880DA80E280CA8033D9
:10029A0089828A83ECFAE493A3C8C582C8CCC58351
:1002AA00CCF0A3C8C582C8CCC583CCDFE9DEE78021
:1002BA000D89828A83E493A3F608DFF9ECFAA9F0A0
:1002CA00EDFB2289828A83ECFAE0A3C8C582C8CCF6
:1002DA00C583CCF0A3C8C582C8CCC583CCDFEADE0F
:1002EA00E880DB89828A83E493A3F208DFF980CC71
:1002FA0088F0EF60010E4E60C388F0ED2402B4046A
:10030A000050B9F582EB2402B4040050AF23234510
:06031A00822390027A73B9
:10032000BB010689828A83E0225002E722BBFE02DB
:09033000E32289828A83E493220E
:10033900BB010CE58229F582E5833AF583E0225079
:1003490006E92582F8E622BBFE06E92582F8E222C3
:0D035900E58229F582E5833AF583E49322DD
:10036600BB010689828A83F0225002F722BBFE0176
:02037600F32270
:10037800F8BB010DE58229F582E5833AF583E8F0BB
:10038800225006E92582C8F622BBFE05E92582C867
:02039800F2224F
:10039A00BB010A89828A83E0F5F0A3E0225006872E
:1003AA00F009E71922BBFE07E3F5F009E3192289F0
:0B03BA00828A83E493F5F07401932223
:1003C500BB010A89828A83F0E5F0A3F0225006F783
:0F03D50009A7F01922BBFE06F3E5F009F3192280
:00000001FF
