:03000000020D9D51
:0C0D9D00787FE4F6D8FD7581C30208A33E
:080DA9007F1B7E40DEFEDFFC33
:010DB100221F
:040D34007F647E005A
:100D3800AD07AC06ED1DAE0470011CD39400EE6443
:0B0D48008094804005120DA980EA2273
:1008A300E4F50B050BE50BD394035012E4FF120C94
:1008B300A2120D347FFF120CA2120D3480E5120D2B
:1008C300BB120CCB120D53120DC27D087F0D12000B
:1008D300267B007A0079447D807C001209318E08E2
:1008E3008F09D3E5099400E50864809480500A7F5A
:1008F30001120CA2120D3480D87B007A007944AD2A
:1009030009AC081205DF8F0AE50A700EFB7A00793D
:1009130044AD09AC0812076080B7E50AB401B27BA5
:0E092300007A007944AD09AC0812004680A3AA
:060760008B0C8A0D890ECE
:10076600120C04AF0E12050D8F0FE50F605CAB0C7B
:10077600AA0DA90E120331B4051A120D87E4F5115C
:100786000511E511B4FFF9120D71E4F5110511E536
:1007960011B4FFF9C2AFAB0CAA0DA90EE50FFD7C93
:1007A60000120B24D2AFAB0CAA0DA90E120A198F98
:1007B6000FAB0CAA0DA90E8F82758300E412038974
:1007C600050FE50FFD7C00120A89E4F511F51012FC
:1007D6000D34AB0CAA0DA90E7D807C001209A58FE5
:1007E6000FE50FD394004013AB0CAA0DA90EEFFD35
:1007F6007C00120C6FE50F2510F5100511E5107041
:0808060007E511C3940A40C785
:01080E0022C7
:060046008B0C8A0D890EEF
:10004C00E92403F9E43A8B0FF5108911C3ED9405FB
:10005C00EC64809480500302023A7F08120CA2AB2D
:10006C000FAA10A91112033124CE600A24F27003D6
:10007C0002015802023A90000112034A24BF6003A5
:10008C0002023A90000212034AFE90000312034A45
:10009C007C002400F515EC3EF514E515F47003E531
:1000AC0014F46008E515151570021514120D877FF0
:1000BC00057E00120D38120D717F057E00120D3871
:1000CC007B017A0279071203F58F19D3E515940A8F
:1000DC00E5149400401274F62515F51574FF3514CB
:1000EC00F5147F057E008008E4F514F5157F05FEF8
:1000FC00120D38E519600F6401600BD3E5159400FF
:10010C00E514940050BA751601751702751804E5BC
:10011C0019B402067E107F0680047E007F00AB16A9
:10012C00AA17A918EE8FF01203D6E519B402047FB2
:10013C000080027F0A900206EFF0751F0175200205
:10014C0075210475220075230702021CAB0FAA103F
:10015C00A91190000112034A24EF70030201F80464
:05016C00600302023AED
:10017100AB0FAA10A91190000212034A900244F099
:1001810090000312034A900245F07B017A02790440
:100191008B168A178918E4F5F01203D68B1F8A2073
:1001A1008921752200752302AB0CAA0DA90E7D8051
:1001B1007C0012080F8E128F13AB0CAA0DA90EAD85
:1001C10013AC12120C6F900245E0FF14F0EF6009BE
:1001D1007FE87E03120D3880ED900244E0B4010502
:1001E10075C760800375C720E4FF120CA2120D349D
:0701F1007FFF120CA280F158
:1001F8007B017A0279048B168A178918E4F5F012C4
:1002080003D69002067410F08B1F8A20892175226C
:1002180000752303AB0CAA0DA90E7D807C00120883
:100228000F8E128F13AB0CAA0DA90EAD13AC1212C0
:020238000C6F49
:01023A0022A1
:100CA200EF30E003C38001D39283EF30E103C380CE
:100CB20001D39280EF30E203C38001D392A3EF30DD
:090CC200E303C38001D392B722C1
:090DB20000000000000000002216
:070DBB00C2A7D2A4D2A522B9
:02050D008F124B
:10050F00E4F514F51320A60D120DA90513E513B488
:10051F0064F37F0022C2AF20A4FD20A6030205D6FC
:10052F00E4F51330A4FD30A50343138030A4062057
:10053F00A6FA0205D630A4FD30A50343134030A41C
:10054F000620A6FA0205D630A4FD30A503431320DA
:10055F0030A40520A6FA806F30A4FD30A503431305
:10056F001030A40520A6FA805E30A4FD30A5034309
:10057F00130830A40520A6FA804D30A4FD30A50342
:10058F0043130430A40520A6FA803C30A4FD30A507
:10059F000343130230A40520A6FA802B30A4FD30AC
:1005AF00A50343130130A40520A6FA801AC2A53073
:1005BF00A4FDA812A61330A40520A6FA8009D2A57F
:0F05CF0005120514020529D2A5D2A4D2AFAF148C
:0105DE0022FA
:040A89008C128D132B
:100A8D00C2AFD2A7120DB2C2A5120DB2C2A4E51308
:100A9D001513AE12700215124E6039120331FF7E1E
:100AAD0080E4FDEF5E6004D2A58002C2A5EEC31303
:100ABD00FED2A4120DB2C2A4120DB20DBD08E4D225
:100ACD00A5120DB2D2A4120DB2C2A4740129F9E47B
:0C0ADD003AFA80BAD2A4D2A5C2A7D2AFC8
:010AE90022EA
:070DC200C295D292C2A022EB
:100CEF00E4FEC29500000000EF30E704D2938002CB
:100CFF00C293EF25E0FFD295000000000EBE08E280
:020D0F00C2958B
:010D110022BF
:100D1200C295E4FF7E80FDD295000000003094036E
:100D2200EE4207C295EEC313FE000000000DBD089F
:010D3200E6DA
:010D3300229D
:060B96007B007D017C00E4
:100B9C008B408A418942E94A4B6025ED4C6021ED3E
:100BAC001DAE0470011C4E6017AB400542E542AA15
:100BBC00417002054114F9120331FF120CEF80DF72
:010BCC002206
:100AEA008B3F8A4089418C428D43E94A4B602AE513
:100AFA004345426024E5431543AE42700215424E17
:100B0A006017120D12AB3F0541E541AA407002057C
:0A0B1A004014F9EF12037780DC228B
:10000300C292EF547FF53E7A00793E120B967B0045
:0F0013007A00793E7D017C00120AEAD292AF3E5C
:0100220022BB
:10002600EF4480F53E8D3FC2927B007A00793E7D9B
:08003600027C00120B9CD29227
:01003E00229F
:060A19008B128A13891400
:100A1F00E4F516F5178005E51520E7097F051200A7
:100A2F00038F1580F2E51530E0467F08120003EFC3
:100A3F007F00FEC006C0077F09120003EFFDD0E064
:100A4F002DF517D0E03400F516451770028026E417
:100A5F00F515C292FB7A0079157D01FC120B9CAB48
:100A6F0012AA13A914AD17AC16120AEAD292800576
:090A7F00E4F516F517AE16AF17E9
:010A8800224B
:0A0B24008B368A3789388C398D3AF8
:100B2E007D057F061200267D017F06120026753B8D
:100B3E0080C2927A00793B120B96AB36AA37A9384F
:100B4E00AD3AAC39120B9CD2927D037F0602002681
:0606A4008B368A3789380D
:1006AA00E4F5F01203D67F051200038F3CE53C30D7
:1006BA00E7F4E53C30E605753C408035E53C30E53D
:1006CA0005753C20802BE53C30E405753C10802103
:1006DA00E53C30E305753C088017E53C30E20575DA
:1006EA003C04800DE53C30E105753C028003753C15
:1006FA00017F08120003EF7F00FEC006C0077F09D2
:10070A00120003EFFDD0E02DFFD0E03400AB36AA93
:10071A0037A9388FF01203D6AB36AA37A938120395
:10072A00AB45F06027C292E4F53DFB7A00793D7D46
:10073A0001FC120B9CAB36AA37A9381203ABFDACED
:10074A00F0AB39AA3AA93B120AEAD292E4FD7F0534
:05075A00120026AF3C77
:01075F002277
:030DC900020B24F6
:100D71007D017F06120026E4FFFE0FBF00010EBEBB
:050D810027F8BF10F58A
:010D8600224A
:100D8700E4FD7F06120026E4FFFE0FBF00010EBE42
:050D970027F8BF10F574
:010D9C002234
:100CCB00759850438E40538EFE53890FC2ABD28E14
:100CDB00758BC5758DFFD2ACD2AFE4900202F0904C
:040CEB000200F022F1
:03002300020C3A92
:100C3A00C0E0C083C082C0D0309821C29890020020
:100C4A00E02400F582E43400F583E599F09002008F
:100C5A00E004F0C3748094814002E4F0D0D0D082E2
:050C6A00D083D0E03250
:0A0C6F008B1A8A1B891C8C1D8D1E38
:100C7900E4FFEFC3951EE51D6480F8748098501851
:100C8900AB1AAA1BA91C8F8275830012034AF59916
:080C99003099FDC2990F80DAC9
:010CA1002230
:0A0931008B0C8A0D890E8C0F8D10BF
:10093B00E4F511F512900202E0FF900200E06F6007
:10094B0054900202E02400F582E43400F583E0FFCA
:10095B00AB0CAA0DA90E0512E512AC117002051114
:10096B0014F5828C83EF120389900202E004F0C32A
:10097B00748094814002E4F0C3E5129510E50F6496
:10098B0080F8E511648098500C900202E0FF900211
:09099B0000E0B507ACAE11AF128B
:0109A4002230
:100D530053BAFE759A50438E1475D7C575D6FF43A3
:0E0D6300AF01D2AFE4900203F0900201F02243
:03004300020B5E4F
:100B5E00C0E0C083C082C0D0E59A30E022539AFE36
:100B6E00900201E02400F582E43401F583E59BF068
:100B7E00900201E004F0C3748094814002E4F0D04E
:080B8E00D0D082D083D0E03208
:0A0C04008B128A1389148C158D16CB
:100C0E00E4FFEFC39516E5156480F8748098501BC9
:100C1E00AB12AA13A9148F8275830012034AF59B97
:0B0C2E00E59A30E1FB539AFD0F80D7E0
:010C39002298
:0A09A5008B128A1389148C158D162D
:1009AF00E4F517F518900203E0FF900201E06F6085
:1009BF0054900203E02400F582E43401F583E0FF54
:1009CF00AB12AA13A9140518E518AC177002051776
:1009DF0014F5828C83EF120389900203E004F0C3B5
:1009EF00748094814002E4F0C3E5189516E5156410
:1009FF0080F8E517648098500C900203E0FF900296
:090A0F0001E0B507ACAE17AF1809
:010A180022BB
:0A0BCD008B248A2589268C278D28A9
:100BD700E4F529FFFEC3EF9528E5276480F8EE6466
:100BE70080985016AB24AA25A9268F828E831203DC
:0C0BF7004A62290FBF00010E80DBAF290D
:010C030022CE
:1005DF008B0C8A0D890EC3ED9403EC94005003022B
:0F05EF00069BAB0CAA0DA90E1203316402706BB0
:1005FE0090000112034A90000212034A2400F50FE4
:10060E00ED24FBFFEC34FFFEAD0F7C00EF6D7001AF
:10061E00EE6002807874042DF582E43CF583AB0C19
:10062E00AA0DA90E12034A640360028060E9240336
:10063E00F9E43AFAE50FFD7C00120BCDE50FF582D9
:10064E008C83A3A3A3AB0CAA0DA90E12034A6F6051
:0B065E00057EFF7FFF227E007F01224F
:10066900AB0CAA0DA90E12033164AA7025900001E2
:1006790012034AB4AA1C90000212034AB4AA1390A6
:10068900000312034AB4960A90000412034A6469EB
:0B06990060057EFF7FFE22E4FEFF22D2
:10080F008B1A8A1B891CE5232405FFE43522FEC3BE
:10081F00ED9FEC9E50057EFF7FFD22AB1AAA1BA910
:10082F001C7402120377E522AB1AAA1BA91C9000B5
:10083F0001120389E523900002120389AE22AF2330
:10084F00E51C2403F9E4351BA801FCAD1AAB1FAA64
:10085F0020A92112030BAB1FAA20A921AD23AC2283
:10086F00120BCDAB1AAA1BA91CE5232403FDE435FB
:10087F00228D82F583EF120389E5232404FFE435EB
:10088F00228F82F5837403120389E5232405FFE485
:04089F003522FE22DE
:030DCC00020026FC
:04003F001200032286
:0603F5008B1A8A1B891C13
:1003FB007535267521937522207D107F01120DCC4A
:10040B007D017F06120DCC7B007A0079357D017C56
:10041B0000120DC9753900753A00753B2B7B007ABC
:10042B0000791D1206A48F207B007A0079217D02B2
:10043B007C00120DC9753900753A00753B2B7B009A
:10044B007A00791D1206A48F20E52020E603020412
:10045B00DF7F0E12003FEF04FFE51E04FEC454F0D5
:10046B002F752193F522E4FFEFC3951EE4951D50E4
:10047B000F742B2FF8E6FE74232FF8A6060F80E8D7
:10048B007B007A007921E51E2402FDE4351DFC1268
:10049B000DC9753900753A00753B2B7B007A0079D5
:1004AB001D1206A48F20E52030E026E4F51F742BE7
:1004BB00251FF8E6FFAB1A051CE51CAA1B700205ED
:1004CB001B14F9EF120377051FE51FB405E07F013D
:1004DB00227F0222E52030E026E4F51F742B251F36
:1004EB00F8E6FFAB1A051CE51CAA1B7002051B14D2
:1004FB00F9EF120377051FE51FB405E07F00227F9C
:01050B0002ED
:01050C0022CC
:10023B00E709F608DFFA8046E709F208DFFA803EA5
:10024B0088828C83E709F0A3DFFA8032E309F60892
:10025B00DFFA8078E309F208DFFA807088828C83FA
:10026B00E309F0A3DFFA806489828A83E0A3F608AE
:10027B00DFFA805889828A83E0A3F208DFFA804C88
:10028B0080D280FA80C680D4806980F2803380105F
:10029B0080A680EA809A80A880DA80E280CA8033C8
:1002AB0089828A83ECFAE493A3C8C582C8CCC58340
:1002BB00CCF0A3C8C582C8CCC583CCDFE9DEE78010
:1002CB000D89828A83E493A3F608DFF9ECFAA9F08F
:1002DB00EDFB2289828A83ECFAE0A3C8C582C8CCE5
:1002EB00C583CCF0A3C8C582C8CCC583CCDFEADEFE
:1002FB00E880DB89828A83E493A3F208DFF980CC60
:10030B0088F0EF60010E4E60C388F0ED2402B40458
:10031B000050B9F582EB2402B4040050AF232345FF
:06032B00822390028B7397
:10033100BB010689828A83E0225002E722BBFE02CA
:09034100E32289828A83E49322FD
:10034A00BB010CE58229F582E5833AF583E0225068
:10035A0006E92582F8E622BBFE06E92582F8E222B2
:0D036A00E58229F582E5833AF583E49322CC
:10037700BB010689828A83F0225002F722BBFE0165
:02038700F3225F
:10038900F8BB010DE58229F582E5833AF583E8F0AA
:10039900225006E92582C8F622BBFE05E92582C856
:0203A900F2223E
:1003AB00BB010A89828A83E0F5F0A3E0225006871D
:1003BB00F009E71922BBFE07E3F5F009E3192289DF
:0B03CB00828A83E493F5F07401932212
:1003D600BB010A89828A83F0E5F0A3F0225006F772
:0F03E60009A7F01922BBFE06F3E5F009F319226F
:00000001FF
