:0300000002111AD0
:0C111A00787FE4F6D8FD7581EF020C4DE3
:081126007F1B7E40DEFEDFFCB2
:01112E00229E
:0410CF007F647E00BC
:1010D300AD07AC06ED1DAE0470011CD39400EE64A5
:0B10E300809480400512112680EA2254
:05114600007F04DFFE44
:01114B002281
:100C4D00E4F5131211381210441210AD12113F7D3C
:100C5D00087F0D1200260513E513D3940350127F60
:100C6D00FF12101B1210CFE4FF12101B1210CF80B9
:100C7D00E57B007A00794C7DA07C00120CDB8E1098
:100C8D008F11D3E5119400E5106480948050051206
:100C9D0010CF80DDE4FF12101B7B007A00794CAD84
:100CAD0011AC101208E58F12E512700EFB7A007967
:100CBD004CAD11AC101209AA80B7E512B401B27B8C
:0E0CCD00007A00794CAD11AC1012004680A3E5
:100FEF009000071204AA24F024FD501124F360107E
:100FFF0024F0600F24D0600E14600B800C7F012250
:0C100F007F02227F04227F08227F002243
:0609AA008B148A1589166A
:1009B000120FEF8F1AAB14AA15A916120F51E51AD0
:1009C0005406605EAF161208098F17E5176053AB27
:1009D00014AA15A916120491B4050C1211041211CF
:1009E000261210EE121126C2AFAB14AA15A916E5F5
:1009F00017FD7C00120EA9D2AFAB14AA15A91612CE
:100A00000D4F8F17AB14AA15A91605178F82758382
:100A100000E41204E9E517FD7C00120DBFE51A2081
:100A2000E2A2E4F519F5187F0A7E001210D3AB1488
:100A3000AA15A9167DA07C00120B258F17E517D3E8
:100A400094004013AB14AA15A916EFFD7C00120FF9
:100A5000BCE5172518F5180519E51860CAE519C38E
:080A6000940A40C3E51770BFC2
:010A6800226B
:060046008B148A158916D7
:10004C00E92403F9E43A8B17F5188919C3ED9405E3
:10005C00EC64809480500302039AAB17AA18A91978
:10006C0012049124CE70030201A724F27003020241
:10007C00B5240F600302039A9000011204AA248F86
:10008C00602D14605614700302011F2403600302D8
:10009C00039A7B017A0579B68B1E8A1F8920E4F5B9
:1000AC00F012054C9005B87401F0F527020372AB01
:1000BC0017AA18A9199000021204AAFF12000390A3
:1000CC0005B8EFF07B017A0579B68B1E8A1F892063
:1000DC00E4F5F012054C8B27020372AB17AA18A992
:1000EC00199000021204AAFF9000031204AAFD1238
:1000FC0000267B017A0579B68B1E8A1F8920E4F5D0
:10010C00F012054C8B278A288929752A00752B0239
:10011C0002037CAB14AA15A9169000011204AAFEC6
:10012C009000021204AA7C002400FFEC3ECF24FEB7
:10013C00F51BEF34FFF51AAB17E5192402F9E4357A
:10014C0018FAAD1BAC1A12114C75410175420575AC
:10015C0043B87B007A00791A120A698F21751E0147
:10016C00751F057520B6E51B451A70082FFFE43482
:10017C0031FE80047E007F00AB1EAA1FA920EE8FEB
:10018C00F012054C7527017528057529B6E51B2459
:10019C0002F52BE4351AF52A02037CAB17AA18A931
:1001AC00199000011204AA24BF600302039A900064
:1001BC00021204AAFE9000031204AA7C002400F58B
:1001CC001DEC3EF51CE51DF47003E51CF46008E520
:1001DC001D151D7002151C7B017A0579B91206DC00
:1001EC008F21E52170057521018008E521B40203FA
:1001FC00E4F521E52170177B017A0579B912056BBD
:10020C008F21E52170057521028003E4F521D3E5EA
:10021C001D9464E51C9400400E749C251DF51D7402
:10022C00FF351CF51C8005E4F51CF51DE521700B54
:10023C00D3E51D9400E51C9400509C751E01751FA0
:10024C00057520B6E52160067E007F0080047E10D7
:10025C007F06AB1EAA1FA920EE8FF012054CE521DC
:10026C007003FF800BE521B401047F0A80027F0B31
:10027C009005B8EFF07527017528057529B6752A14
:10028C0000752B07AB14AA15A9167DA07C00120BC8
:10029C00B98E1A8F1BAB14AA15A916AD1BAC1A126A
:1002AC000FBCE4FD7F01020026AB17AA18A9199018
:1002BC0000011204AA24EF70030203580460030225
:0202CC00039A93
:1002CE00AB17AA18A9199000021204AA9005F6F00D
:1002DE009000031204AA9005F7F07B017A0579B617
:1002EE008B1E8A1F8920E4F5F012054C8B278A2875
:1002FE008929752A00752B02AB14AA15A9167DA0A3
:10030E007C00120BB98E1A8F1BAB14AA15A916AD51
:10031E001BAC1A120FBC9005F7E0FF14F0EF60094A
:10032E007FE87E031210D380ED9005F6E0B4010550
:10033E0075C760800375C720E4FF12101B1210CF23
:0A034E007FFF12101B1210CF80EE8B
:100358007B017A0579B68B1E8A1F8920E4F5F01295
:10036800054C9005B87410F08B278A288929752ABE
:1003780000752B03AB14AA15A9167DA07C00120BDF
:10038800B98E1A8F1BAB14AA15A916AD1BAC1A127D
:020398000FBC98
:01039A002240
:10101B00EF30E003C38001D39283EF30E103C38051
:10102B0001D39280EF30E203C38001D392A3EF3060
:09103B00E303C38001D392B72244
:09112F0000000000000000002295
:07113800C2A7D2A4D2A52238
:020809008F1B43
:10080B00E478EDF678EFF618F6C2AF20A61C1211BD
:10081B004678EE06E6C394FF40050806E418F67822
:10082B00EFE6C3942840E40208DA20A4FD20A603D7
:10083B000208DAE478ECF630A4FD30A50678ECE695
:10084B004480F630A40620A6FA0208DA30A4FD3064
:10085B00A50678ECE64440F620A4FD30A4FD30A5B7
:10086B000678ECE64420F620A4FD30A4FD30A50666
:10087B0078ECE64410F620A4FD30A4FD30A50678F4
:10088B00ECE64408F620A4FD30A4FD30A50678EC78
:10089B00E64404F620A4FD30A4FD30A50678ECE672
:1008AB004402F620A4FD30A4FD30A50678ECE64406
:1008BB0001F620A4FDC2A530A4FD78ECE6AE1B0525
:1008CB001BA806F620A4FDD2A578ED06020838D2A7
:0908DB00A5D2A4D2AF78EDE6FF2E
:0108E40022F1
:040DBF008C1B8D1CE0
:100DC300C2AFD2A712112FC2A512112FC2A4E51CC4
:100DD300151CAE1B7002151B4E6039120491FF7E69
:100DE30080E4FDEF5E6004D2A58002C2A5EEC313CA
:100DF300FED2A412112FC2A412112F0DBD08E4D2EA
:100E0300A512112FD2A412112FC2A4740129F9E43F
:0C0E13003AFA80BAD2A4D2A5C2A7D2AF8E
:010E1F0022B0
:07113F00C295D292C2A0226A
:10106800E4FEC29500000000EF30E704D29380024E
:10107800C293EF25E0FFD295000000000EBE08E203
:02108800C2950F
:01108A002243
:10108B00C295E4FF7E80FDD29500000000309403F2
:10109B00EE4207C295EEC313FE000000000DBD0823
:0110AB00E65E
:0110AC002221
:060EE3007B007D017C0094
:100EE9008B488A49894AE94A4B6025ED4C6021EDD6
:100EF9001DAE0470011C4E6017AB48054AE54AAAAD
:100F0900497002054914F9120491FF12106880DF33
:010F190022B5
:100E6F008B478A4889498C4A8D4BE94A4B602AE562
:100E7F004B454A6024E54B154BAE4A7002154A4E5E
:100E8F00601712108BAB470549E549AA4870020558
:0A0E9F004814F9EF1204D780DC229A
:10000300C292EF547FF5467A007946120EE37B00E5
:0F0013007A0079467D017C00120E6FD292AF46C3
:0100220022BB
:10002600EF4480F5468D47C2927B007A0079467D83
:08003600027C00120EE9D292D7
:01003E00229F
:060D4F008B1B8A1C891DAC
:100D5500E4F51FF5208005E51E20E7097F05120053
:100D6500038F1E80F2E51E30E0467F08120003EF78
:100D75007F00FEC006C0077F09120003EFFDD0E02B
:100D85002DF520D0E03400F51F452070028026E4C3
:100D9500F51EC292FB7A00791E7D01FC120EE9ABAD
:100DA5001BAA1CA91DAD20AC1F120E6FD292800587
:090DB500E4F51FF520AE1FAF208C
:010DBE002212
:0A0EA9008B3E8A3F89408C418D4248
:100EB3007D057F061200267D017F061200267543FD
:100EC30080C2927A007943120EE3AB3EAA3FA94057
:100ED300AD42AC41120EE9D2927D037F0602002699
:060A69008B3E8A3F89402C
:100A6F00E4F5F012054C7F051200038F44E5443086
:100A7F00E7F4E54430E6057544408035E54430E55C
:100A8F0005754420802BE54430E405754410802122
:100A9F00E54430E3057544088017E54430E20575F9
:100AAF004404800DE54430E105754402800375442C
:100ABF00017F08120003EF7F00FEC006C0077F0909
:100ACF00120003EFFDD0E02DFFD0E03400AB3EAAC3
:100ADF003FA9408FF012054CAB3EAA3FA94012052B
:100AEF002145F06027C292E4F545FB7A0079457DF8
:100AFF0001FC120EE9AB3EAA3FA940120521FDAC45
:100B0F00F0AB41AA42A943120E6FD292E4FD7F05CA
:050B1F00120026AF44A6
:010B240022AE
:03114C00020EA9E7
:1010EE007D017F06120026E4FFFE0FBF00010EBE3B
:0510FE0027F8BF10F50A
:0111030022C9
:10110400E4FD7F06120026E4FFFE0FBF00010EBEC1
:0511140027F8BF10F5F3
:0111190022B3
:10104400759850438E40538EFE53890FC2ABD28E97
:10105400758BC5758DFFD2ACD2AFE49005B3F0901B
:0410640005B0F022C1
:03002300020F8742
:100F8700C0E0C083C082C0D0309821C2989005B01D
:100F9700E02400F582E43400F583E599F09005B08C
:100FA700E004F0C3748094814002E4F0D0D0D08292
:050FB700D083D0E03200
:0A0FBC008B228A2389248C258D26C0
:100FC600E4FFEFC39526E5256480F87480985018F1
:100FD600AB22AA23A9248F827583001204AAF5994D
:080FE6003099FDC2990F80DA79
:010FEE0022E0
:0A0CDB008B148A1589168C178D18EA
:100CE500E4F519F51A9005B3E0FF9005B0E06F60E3
:100CF500549005B3E02400F582E43400F583E0FF69
:100D0500AB14AA15A916051AE51AAC19700205192E
:100D150014F5828C83EF1204E99005B3E004F0C367
:100D2500748094814002E4F0C3E51A9518E51764D0
:100D350080F8E519648098500C9005B3E0FF9005A4
:090D4500B0E0B507ACAE19AF1A1D
:010D4E002282
:1010AD0053BAFE759A50438E1475D7C575D6FF4346
:1010BD00AF01D2AFE49005B4F0A3F09005B1F0A369
:0210CD00F0220F
:03004300020E208A
:100E2000C0E0C0F0C083C082C0D075D008E59A3061
:100E3000E032539AFE9005B1E0FEA3E02400F58273
:100E400074013EF583E59BF09005B1E475F0011265
:100E5000050BFEC3E5F094B0EE940440079005B195
:0F0E6000E4F0A3F0D0D0D082D083D0F0D0E03235
:0A0F51008B1B8A1C891D8C1E8D1F4E
:100F5B00E4FFEFC3951FE51E6480F8748098501B67
:100F6B00AB1BAA1CA91D8F827583001204AAF59BCB
:0B0F7B00E59A30E1FB539AFD0F80D790
:010F86002248
:0A0B25008B1B8A1C891D8C1E8D1F7E
:100B2F00E4F520F5219005B4E0FEA3E0FF9005B1B8
:100B3F00E06E7003A3E06F606C9005B4E0FEA3E07D
:100B4F002400F58274013EF583E0FFAB1BAA1CA9BC
:100B5F001D0521E521AC207002052014F5828C8340
:100B6F00EF1204E99005B4E475F00112050BFEC312
:100B7F00E5F094B0EE94044007E49005B4F0A3F0D0
:100B8F00C3E521951FE51E6480F8E5206480985029
:100B9F00149005B4E0FEA3E0FF9005B1E0B506990F
:090BAF00A3E0B50794AE20AF21CC
:010BB800221A
:0A0F1A008B2C8A2D892E8C2F8D3030
:100F2400E4F531FFFEC3EF9530E52F6480F8EE64FD
:100F340080985016AB2CAA2DA92E8F828E83120472
:0C0F4400AA62310FBF00010E80DBAF314C
:010F5000227E
:1008E5008B148A158916C3ED9403EC94005003020A
:0F08F50009A1AB14AA15A9161204916402706B25
:100904009000011204AA9000021204AA2400F51710
:10091400ED24FBFFEC34FFFEAD177C00EF6D70019E
:10092400EE6002807874042DF582E43CF583AB1408
:10093400AA15A9161204AA640360028060E92403BC
:10094400F9E43AFAE517FD7C00120F1AE517F5826F
:100954008C83A3A3A3AB14AA15A9161204AA6F60CF
:0B096400057EFF7FFF227E007F012246
:10096F00AB14AA15A91612049164AA702590000160
:10097F001204AAB4AA1C9000021204AAB4AA1390DB
:10098F0000031204AAB4960A9000041204AA646920
:0B099F0060057EFF7FFE22E4FEFF22C9
:100BB9008B228A238924E52B2405FFE4352AFEC3E9
:100BC900ED9FEC9E50057EFF7FFD22AB22AA23A953
:100BD9002474021204D7E52AAB22AA23A92490007F
:100BE900011204E9E52B9000021204E9AE2AAF2BA9
:100BF900E5242403F9E43523A801FCAD22AB27AA97
:100C090028A92912046BAB27AA28A929AD2BAC2A3C
:100C1900120F1AAB22AA23A924E52B2403FDE435DC
:100C29002A8D82F583EF1204E9E52B2404FFE435CC
:100C39002A8F82F58374031204E9E52B2405FFE466
:040C4900352AFE2228
:03114F0002002675
:04003F001200032286
:06056B008B228A23892483
:10057100E4FD7F0112114FE4FD7F0612114F7F054B
:100581007E001210D37D017F0612114F7F057E0080
:100591001210D39005FB7405F0E4A3F0A3F07B01E6
:1005A1007A0579FB7D03FC12114C754101754205F9
:1005B1007543FB7B017A0579F8120A699005FAEF18
:1005C100F09005F8E07002A3E060089005FBE0649C
:1005D1005060087F0112101B7F01229005FB741DE2
:1005E100F0E4900600F0A37408F0A37401F0A3F006
:1005F100FB7A0579FB7D097C0012114C754101756F
:1006010042057543FB7B017A0579F8120A69900569
:10061100FAEFF09005F8E07002A3E070037F022288
:100621009005FBE0640160037F0222E49005FBF08A
:10063100A37436F0E4A3F0A3F0A37408F07B017A6D
:100641000579FB7D057C0012114C75410175420550
:100651007543FB7B017A0579F8120A699005FAEF77
:10066100F09005F8E07002A3E070037F022290068B
:1006710003E0B49004A3E060037F03229005FBE054
:10068100FFAB220524E524AA237002052314F9EF08
:100691001204D79005FCE0FFAB220524E524AA2330
:1006A1007002052314F9EF1204D79005FDE0FFABAA
:1006B100220524E524AA237002052314F9EF12046C
:1006C100D79005FEE0FFAB220524E524AA237002A2
:0A06D100052314F9EF1204D77F008F
:0106DB0022FC
:0606DC008B228A23892411
:1006E200753D26752993752A207D107F0112114FC1
:1006F200E4FD7F0612114F7F057E001210D37D01AB
:100702007F0612114F7F057E001210D37B007A0004
:10071200793D7D017C0012114C75410075420075D6
:1007220043337B007A007925120A698F287B007A8D
:100732000079297D027C0012114C7541007542003E
:100742007543337B007A007925120A698F28E528E0
:1007520020E6030207DB7F0E12003FEF04FFE526CF
:1007620004FEC454F02F752993F52AE4FFEFC395D4
:1007720026E49525500F74332FF8E6FE742B2FF8DC
:10078200A6060F80E87B007A007929E5262402FD7F
:10079200E43525FC12114C75410075420075433356
:1007A2007B007A007925120A698F28E52830E02635
:1007B200E4F52774332527F8E6FFAB220524E52468
:1007C200AA237002052314F9EF1204D70527E5279F
:1007D200B405E07F01227F0222E52830E026E4F51D
:1007E2002774332527F8E6FFAB220524E524AA2344
:1007F2007002052314F9EF1204D70527E527B40583
:06080200E07F00227F02EE
:0108080022CD
:10039B00E709F608DFFA8046E709F208DFFA803E44
:1003AB0088828C83E709F0A3DFFA8032E309F60831
:1003BB00DFFA8078E309F208DFFA807088828C8399
:1003CB00E309F0A3DFFA806489828A83E0A3F6084D
:1003DB00DFFA805889828A83E0A3F208DFFA804C27
:1003EB0080D280FA80C680D4806980F280338010FE
:1003FB0080A680EA809A80A880DA80E280CA803367
:10040B0089828A83ECFAE493A3C8C582C8CCC583DE
:10041B00CCF0A3C8C582C8CCC583CCDFE9DEE780AE
:10042B000D89828A83E493A3F608DFF9ECFAA9F02D
:10043B00EDFB2289828A83ECFAE0A3C8C582C8CC83
:10044B00C583CCF0A3C8C582C8CCC583CCDFEADE9C
:10045B00E880DB89828A83E493A3F208DFF980CCFE
:10046B0088F0EF60010E4E60C388F0ED2402B404F7
:10047B000050B9F582EB2402B4040050AF2323459E
:06048B0082239003EB73D5
:10049100BB010689828A83E0225002E722BBFE0269
:0904A100E32289828A83E493229C
:1004AA00BB010CE58229F582E5833AF583E0225007
:1004BA0006E92582F8E622BBFE06E92582F8E22251
:0D04CA00E58229F582E5833AF583E493226B
:1004D700BB010689828A83F0225002F722BBFE0104
:0204E700F322FE
:1004E900F8BB010DE58229F582E5833AF583E8F049
:1004F900225006E92582C8F622BBFE05E92582C8F5
:02050900F222DC
:10050B00C5F0F8A3E028F0C5F0F8E582158270027B
:06051B001583E038F02218
:10052100BB010A89828A83E0F5F0A3E022500687A5
:10053100F009E71922BBFE07E3F5F009E319228967
:0B054100828A83E493F5F0740193229A
:10054C00BB010A89828A83F0E5F0A3F0225006F7FA
:0F055C0009A7F01922BBFE06F3E5F009F31922F7
:00000001FF
