:03000000020EBA33
:0C0EBA00787FE4F6D8FD7581C70209EDD1
:080EC6007F1B7E40DEFEDFFC15
:010ECE002201
:040E6F007F647E001E
:100E7300AD07AC06ED1DAE0470011CD39400EE6407
:0B0E83008094804005120EC680EA2219
:050EE600007F04DFFEA7
:010EEB0022E4
:1009ED00E4F513120ED8120DE4120E4D120EDF7D2A
:1009FD00087F0D1200260513E513D3940350127FC3
:100A0D00FF120DBB120E6FE4FF120DBB120E6F80A5
:100A1D00E57B007A00794C7D787C00120A7B8E1084
:100A2D008F11D3E5119400E5106480948050051268
:100A3D000E6F80DDE4FF120DBB7B007A00794CADAB
:100A4D0011AC101206858F12E512700EFB7A00792B
:100A5D004CAD11AC1012074A80B7E512B401B27B50
:0E0A6D00007A00794CAD11AC1012004680A347
:100D8F009000071203D624F024FD501124F36010B5
:100D9F0024F0600F24D0600E14600B800C7F0122B2
:0C0DAF007F02227F04227F08227F0022A6
:06074A008B148A158916CC
:10075000120D8F8F1AAB14AA15A916120CF1E51AF7
:100760005406605EAF161205AF8F17E5176053ABE6
:1007700014AA15A9161203BDB4050C120EA4120E6C
:10078000C6120E8E120EC6C2AFAB14AA15A916E57C
:1007900017FD7C00120C49D2AFAB14AA15A9161292
:1007A0000AEF8F17AB14AA15A91605178F82758348
:1007B00000E4120415E517FD7C00120B5FE51A201A
:1007C000E2A2E4F519F5187F0A7E00120E73AB144D
:1007D000AA15A9167D787C001208C58F17E517D3D6
:1007E00094004013AB14AA15A916EFFD7C00120D5E
:1007F0005CE5172518F5180519E51860CAE519C351
:08080000940A40C3E51770BF24
:0108080022CD
:060046008B148A158916D7
:10004C00E92403F9E43A8B17F5188919C3ED9405E3
:10005C00EC6480948050030202C6AB17AA18A9194D
:10006C001203BD24CE700302011924F270030201A5
:10007C00E1240F60030202C69000011203D6248F04
:10008C006027146050240260030202C67B017A05CB
:10009C0079B68B1E8A1F8920E4F5F012047890053E
:1000AC00B87401F0F52702029EAB17AA18A9199093
:1000BC0000021203D6FF1200039005B8EFF07B018B
:1000CC007A0579B68B1E8A1F8920E4F5F012047824
:1000DC008B2702029EAB17AA18A9199000021203D3
:1000EC00D6FF9000031203D6FD1200267B017A0581
:1000FC0079B68B1E8A1F8920E4F5F01204788B27C1
:10010C008A288929752A00752B020202A8AB17AA26
:10011C0018A9199000011203D624BF60030202C66D
:10012C009000021203D6FE9000031203D67C00242A
:10013C0000F51DEC3EF51CE51DF47003E51CF460A8
:10014C0008E51D151D7002151C7B017A0579B91285
:10015C0004978F21D3E51D940AE51C94004012747A
:10016C00F6251DF51D74FF351CF51C7F057E0080E2
:10017C0008E4F51CF51D7F05FE120E73E521600FDA
:10018C006401600BD3E51D9400E51C940050BA7516
:10019C001E01751F057520B6E521B402067E107F81
:1001AC000680047E007F00AB1EAA1FA920EE8FF0F4
:1001BC00120478E521B402047F0080027F0A9005C6
:1001CC00B8EFF07527017528057529B6752A0075E5
:1001DC002B070202A8AB17AA18A919900001120349
:0E01EC00D624EF70030202840460030202C6F0
:1001FA00AB17AA18A9199000021203D69005F6F0B7
:10020A009000031203D69005F7F07B017A0579B6C0
:10021A008B1E8A1F8920E4F5F01204788B278A281E
:10022A008929752A00752B02AB14AA15A9167D789F
:10023A007C001209598E1A8F1BAB14AA15A916AD88
:10024A001BAC1A120D5C9005F7E0FF14F0EF600981
:10025A007FE87E03120E7380ED9005F6E0B4010587
:10026A0075C760800375C720E4FF120DBB120E6FBD
:0A027A007FFF120DBB120E6F80EE25
:100284007B017A0579B68B1E8A1F8920E4F5F0126A
:1002940004789005B87410F08B278A288929752A68
:1002A40000752B03AB14AA15A9167D787C001209DE
:1002B400598E1A8F1BAB14AA15A916AD1BAC1A12B2
:0202C4000D5CCF
:0102C6002215
:100DBB00EF30E003C38001D39283EF30E103C380B4
:100DCB0001D39280EF30E203C38001D392A3EF30C3
:090DDB00E303C38001D392B722A7
:090ECF00000000000000000022F8
:070ED800C2A7D2A4D2A5229B
:0205AF008F1BA0
:1005B100E478C5F678C7F618F6C2AF20A61C120E6D
:1005C100E678C606E6C394FF40050806E418F67807
:1005D100C7E6C3941440E402067A20A4FDE478C47B
:1005E100F630A4FD30A50678C4E64480F630A406B2
:1005F10020A6FA02067A30A4FD30A50678C4E644A6
:1006010040F620A4FD30A4FD30A50678C4E64420C0
:10061100F620A4FD30A4FD30A50678C4E64410F60A
:1006210020A4FD30A4FD30A50678C4E64408F620D8
:10063100A4FD30A4FD30A50678C4E64404F620A448
:10064100FD30A4FD30A50678C4E64402F620A4FDE1
:1006510030A4FD30A50678C4E64401F620A4FDC20D
:10066100A530A4FD78C4E6AE1B051BA806F620A4A0
:10067100FDD2A578C5060205DED2A5D2A4D2AF78F7
:03068100C5E6FFCC
:010684002253
:040B5F008C1B8D1C42
:100B6300C2AFD2A7120ECFC2A5120ECFC2A4E51CEC
:100B7300151CAE1B7002151B4E60391203BDFF7EA0
:100B830080E4FDEF5E6004D2A58002C2A5EEC3132C
:100B9300FED2A4120ECFC2A4120ECF0DBD08E4D212
:100BA300A5120ECFD2A4120ECFC2A4740129F9E468
:0C0BB3003AFA80BAD2A4D2A5C2A7D2AFF1
:010BBF002213
:070EDF00C295D292C2A022CD
:100E0800E4FEC29500000000EF30E704D2938002B0
:100E1800C293EF25E0FFD295000000000EBE08E265
:020E2800C29571
:010E2A0022A5
:100E2B00C295E4FF7E80FDD2950000000030940354
:100E3B00EE4207C295EEC313FE000000000DBD0885
:010E4B00E6C0
:010E4C002283
:060C83007B007D017C00F6
:100C89008B488A49894AE94A4B6025ED4C6021ED38
:100C99001DAE0470011C4E6017AB48054AE54AAA0F
:100CA900497002054914F91203BDFF120E0880DFCD
:010CB9002218
:100C0F008B478A4889498C4A8D4BE94A4B602AE5C4
:100C1F004B454A6024E54B154BAE4A7002154A4EC0
:100C2F006017120E2BAB470549E549AA487002051C
:0A0C3F004814F9EF12040380DC22D0
:10000300C292EF547FF5467A007946120C837B0047
:0F0013007A0079467D017C00120C0FD292AF4625
:0100220022BB
:10002600EF4480F5468D47C2927B007A0079467D83
:08003600027C00120C89D29239
:01003E00229F
:060AEF008B1B8A1C891D0F
:100AF500E4F51FF5208005E51E20E7097F051200B6
:100B0500038F1E80F2E51E30E0467F08120003EFDA
:100B15007F00FEC006C0077F09120003EFFDD0E08D
:100B25002DF520D0E03400F51F452070028026E425
:100B3500F51EC292FB7A00791E7D01FC120C89AB71
:100B45001BAA1CA91DAD20AC1F120C0FD29280054B
:090B5500E4F51FF520AE1FAF20EE
:010B5E002274
:0A0C49008B3E8A3F89408C418D42AA
:100C53007D057F061200267D017F0612002675435F
:100C630080C2927A007943120C83AB3EAA3FA9401B
:100C7300AD42AC41120C89D2927D037F060200265D
:060809008B3E8A3F89408E
:10080F00E4F5F01204787F051200038F44E54430BD
:10081F00E7F4E54430E6057544408035E54430E5BE
:10082F0005754420802BE54430E405754410802184
:10083F00E54430E3057544088017E54430E205755B
:10084F004404800DE54430E105754402800375448E
:10085F00017F08120003EF7F00FEC006C0077F096B
:10086F00120003EFFDD0E02DFFD0E03400AB3EAA25
:10087F003FA9408FF0120478AB3EAA3FA940120463
:10088F004D45F06027C292E4F545FB7A0079457D2E
:10089F0001FC120C89AB3EAA3FA94012044DFDACDE
:1008AF00F0AB41AA42A943120C0FD292E4FD7F058F
:0508BF00120026AF4409
:0108C4002211
:030EEC00020C49AC
:100E8E007D017F06120026E4FFFE0FBF00010EBE9D
:050E9E0027F8BF10F56C
:010EA300222C
:100EA400E4FD7F06120026E4FFFE0FBF00010EBE24
:050EB40027F8BF10F556
:010EB9002216
:100DE400759850438E40538EFE53890FC2ABD28EFA
:100DF400758BC5758DFFD2ACD2AFE49005B3F0907E
:040E040005B0F02223
:03002300020D27A4
:100D2700C0E0C083C082C0D0309821C2989005B07F
:100D3700E02400F582E43400F583E599F09005B0EE
:100D4700E004F0C3748094814002E4F0D0D0D082F4
:050D5700D083D0E03262
:0A0D5C008B228A2389248C258D2622
:100D6600E4FFEFC39526E5256480F8748098501853
:100D7600AB22AA23A9248F827583001203D6F59984
:080D86003099FDC2990F80DADB
:010D8E002242
:0A0A7B008B148A1589168C178D184C
:100A8500E4F519F51A9005B3E0FF9005B0E06F6045
:100A9500549005B3E02400F582E43400F583E0FFCB
:100AA500AB14AA15A916051AE51AAC197002051991
:100AB50014F5828C83EF1204159005B3E004F0C39E
:100AC500748094814002E4F0C3E51A9518E5176433
:100AD50080F8E519648098500C9005B3E0FF900507
:090AE500B0E0B507ACAE19AF1A80
:010AEE0022E5
:100E4D0053BAFE759A50438E1475D7C575D6FF43A8
:100E5D00AF01D2AFE49005B4F0A3F09005B1F0A3CB
:020E6D00F02271
:03004300020BC0ED
:100BC000C0E0C0F0C083C082C0D075D008E59A30C4
:100BD000E032539AFE9005B1E0FEA3E02400F582D6
:100BE00074013EF583E59BF09005B1E475F00112C8
:100BF0000437FEC3E5F094B0EE940440079005B1CD
:0F0C0000E4F0A3F0D0D0D082D083D0F0D0E03297
:0A0CF1008B1B8A1C891D8C1E8D1FB1
:100CFB00E4FFEFC3951FE51E6480F8748098501BCA
:100D0B00AB1BAA1CA91D8F827583001203D6F59B02
:0B0D1B00E59A30E1FB539AFD0F80D7F2
:010D260022AA
:0A08C5008B1B8A1C891D8C1E8D1FE1
:1008CF00E4F520F5219005B4E0FEA3E0FF9005B11B
:1008DF00E06E7003A3E06F606C9005B4E0FEA3E0E0
:1008EF002400F58274013EF583E0FFAB1BAA1CA91F
:1008FF001D0521E521AC207002052014F5828C83A3
:10090F00EF1204159005B4E475F001120437FEC31D
:10091F00E5F094B0EE94044007E49005B4F0A3F032
:10092F00C3E521951FE51E6480F8E520648098508B
:10093F00149005B4E0FEA3E0FF9005B1E0B5069971
:09094F00A3E0B50794AE20AF212E
:01095800227C
:0A0CBA008B2C8A2D892E8C2F8D3093
:100CC400E4F531FFFEC3EF9530E52F6480F8EE6460
:100CD40080985016AB2CAA2DA92E8F828E831203D6
:0C0CE400D662310FBF00010E80DBAF3183
:010CF00022E1
:100685008B148A158916C3ED9403EC94005003026C
:0F0695000741AB14AA15A9161203BD6402706BBE
:1006A4009000011203D69000021203D62400F5171D
:1006B400ED24FBFFEC34FFFEAD177C00EF6D700101
:1006C400EE6002807874042DF582E43CF583AB146B
:1006D400AA15A9161203D6640360028060E92403F4
:1006E400F9E43AFAE517FD7C00120CBAE517F58235
:1006F4008C83A3A3A3AB14AA15A9161203D66F6007
:0B070400057EFF7FFF227E007F0122A8
:10070F00AB14AA15A9161203BD64AA702590000197
:10071F001203D6B4AA1C9000021203D6B4AA1390E7
:10072F0000031203D6B4960A9000041203D664692C
:0B073F0060057EFF7FFE22E4FEFF222B
:100959008B228A238924E52B2405FFE4352AFEC34B
:10096900ED9FEC9E50057EFF7FFD22AB22AA23A9B5
:10097900247402120403E52AAB22AA23A9249000B5
:1009890001120415E52B900002120415AE2AAF2BB3
:10099900E5242403F9E43523A801FCAD22AB27AAF9
:1009A90028A929120397AB27AA28A929AD2BAC2A74
:1009B900120CBAAB22AA23A924E52B2403FDE435A2
:1009C9002A8D82F583EF120415E52B2404FFE43503
:1009D9002A8F82F5837403120415E52B2405FFE49D
:0409E900352AFE228B
:030EEF00020026D8
:04003F001200032286
:060497008B228A23892458
:10049D00753D26752993752A207D107F01120EEF6B
:1004AD007D017F06120EEF7B007A00793D7D017C88
:1004BD0000120EEC7541007542007543337B007AD6
:1004CD000079251208098F287B007A0079297D0291
:1004DD007C00120EEC7541007542007543337B00B4
:1004ED007A0079251208098F28E52820E6030205F0
:1004FD00817F0E12003FEF04FFE52604FEC454F089
:10050D002F752993F52AE4FFEFC39526E495255021
:10051D000F74332FF8E6FE742B2FF8A6060F80E824
:10052D007B007A007929E5262402FDE43525FC12AD
:10053D000EEC7541007542007543337B007A0079EE
:10054D00251208098F28E52830E026E4F5277433B5
:10055D002527F8E6FFAB220524E524AA2370020522
:10056D002314F9EF1204030527E527B405E07F01F5
:10057D00227F0222E52830E026E4F5277433252773
:10058D00F8E6FFAB220524E524AA23700205231407
:10059D00F9EF1204030527E527B405E07F00227F5C
:0105AD00024B
:0105AE00222A
:1002C700E709F608DFFA8046E709F208DFFA803E19
:1002D70088828C83E709F0A3DFFA8032E309F60806
:1002E700DFFA8078E309F208DFFA807088828C836E
:1002F700E309F0A3DFFA806489828A83E0A3F60822
:10030700DFFA805889828A83E0A3F208DFFA804CFB
:1003170080D280FA80C680D4806980F280338010D2
:1003270080A680EA809A80A880DA80E280CA80333B
:1003370089828A83ECFAE493A3C8C582C8CCC583B3
:10034700CCF0A3C8C582C8CCC583CCDFE9DEE78083
:100357000D89828A83E493A3F608DFF9ECFAA9F002
:10036700EDFB2289828A83ECFAE0A3C8C582C8CC58
:10037700C583CCF0A3C8C582C8CCC583CCDFEADE71
:10038700E880DB89828A83E493A3F208DFF980CCD3
:1003970088F0EF60010E4E60C388F0ED2402B404CC
:1003A7000050B9F582EB2402B4040050AF23234573
:0603B7008223900317737E
:1003BD00BB010689828A83E0225002E722BBFE023E
:0903CD00E32289828A83E4932271
:1003D600BB010CE58229F582E5833AF583E02250DC
:1003E60006E92582F8E622BBFE06E92582F8E22226
:0D03F600E58229F582E5833AF583E4932240
:10040300BB010689828A83F0225002F722BBFE01D8
:02041300F322D2
:10041500F8BB010DE58229F582E5833AF583E8F01D
:10042500225006E92582C8F622BBFE05E92582C8C9
:02043500F222B1
:10043700C5F0F8A3E028F0C5F0F8E5821582700250
:060447001583E038F022ED
:10044D00BB010A89828A83E0F5F0A3E0225006877A
:10045D00F009E71922BBFE07E3F5F009E31922893C
:0B046D00828A83E493F5F0740193226F
:10047800BB010A89828A83F0E5F0A3F0225006F7CF
:0F04880009A7F01922BBFE06F3E5F009F31922CC
:00000001FF
